:030000000204A057
:0C04A000787FE4F6D8FD7581460204E781
:100686001232C0F9A4B0999282F880908880C6C0D0
:10069600868EBF7F03248082840344818385032161
:1006A600575923032D000000022B000002290000E9
:1006B600C18102300000C102C100012800012700EB
:0706C7001206CE7580FF0F43
:1006CE00EF603224FB601314601914601F24037052
:1006DE0027E5A0541F4480F5A022E5A0541F44A096
:1006EE00F5A022E5A0541F44C0F5A022E5A0541F9A
:0906FE0044E0F5A02253A01F22E4
:0F094500EFC4540F75F00AA4FEEF540F2EFF22DB
:1007EA000FEF24E6601724F0601624F0601524F059
:1007FA00601424F06013245070117F10227F20228D
:0C080A007F30227F40227F50227F60223E
:100707008F081508E50824F1602824F0601F24F0FD
:10071700601624F0600D2440601D24B0701C75081D
:100727004980177508398012750829800D750819D1
:0D07370080087508098003750859AF082275
:0C0971007F041206C7E4F580FF0206CEEA
:10093500758901758CD8758AEFD28CD2A9D2AF2270
:03000B0002052CBF
:10052C00C0E0C0F0C0D075D000C000C004C005C091
:10053C0006C007758CD8758AEF052AE52A70020566
:10054C0029646445297006B201F529F52A30002D7D
:10055C000531E53170020530AE30FF7C007D1412A0
:10056C0005EFED4C7017B202C3E53194F4E530940D
:10057C0001400AC200753000753100C202D007D0AC
:0E058C0006D005D004D000D0D0D0F0D0E032A0
:1007B900E4FD7F8E120921E4F508D3E5089402745B
:1007C900809480501574242508F8E6FF74212508C3
:1007D900F8E6FD120921050880E07D807F8E020977
:0107E90021EE
:10088D00E4F508D3E50894027480948050157444FF
:10089D002508F8E6FF12074474212508F8A6070578
:0308AD000880E0E0
:0108B0002225
:100644001208667FCC12083F7F4412083F120866E6
:100654007FCC12083F7FBE12083F1208B18F0812E8
:1006640008B1EFF52BE508F52CE52B54F87012E5ED
:100674002BC4F854F0C868F52BE52CC4540F48F586
:010684002C49
:010685002252
:0F08F000C4540F2432F8E6FD1208167FF47E017F
:0B08FF00EF1FAC0670011E4C70F622CB
:10081600AE077F071206CE7580FF1F1206CEEE14B6
:10082600FFF87401088002C333D8FCF5807F0712F5
:0908360006CE8D80E4FF0206CE1F
:0E096300AE077F061206C78E80E4FF0206CEA6
:10000E00E527FB7A00600302014DAF28FEEF640185
:10001E0070047D0180027D003001047C0180027C31
:10002E0000ED5CFDEF4E70047F0180027F00EF4D0E
:10003E00FFE528FD7C00640270047E0180027E00D4
:10004E00EE4FFFED64034C70047E0180027E00EEE5
:10005E004F6015E5237F011208F0E523540F24327B
:10006E00F8E6FD7F021208F8AD427F031208F8AFE2
:10007E00287E00EF640270047D0180027D00300155
:10008E00047C0180027C00ED5CFDEF4E70047F016C
:10009E0080027F00EF4DFFE528FD7C0064017004B7
:1000AE007E0180027E00EE4FFFED64034C70047EF5
:1000BE000180027E00EE4F601DE522C4540F2432F3
:1000CE00F8E6FD7F041208F8E522540F2432F8E614
:1000DE00FD7F051208F8AD427F061208F8AF287EA4
:1000EE0000EF640370047D0180027D003001047C0A
:1000FE000180027C00ED5CFDEF4E70047F018002FA
:10010E007F00EF4DFFE528FD7C00640270047E0148
:10011E0080027E00EE4FFFED64014C70047E018084
:10012E00027E00EE4F6015E5217F071208F0E521F3
:10013E00540F2432F8E6FD7F081208F80202A6EBEF
:10014E004A70030202ABAF277E00EF640170047D9C
:10015E000180027D003001047C0180027C00ED5C98
:10016E00FDEF4E70047F0180027F00EF4DFFE5270B
:10017E00FD7C00640270047E0180027E00EE4FFF63
:10018E00ED64034C70047E0180027E00EE4F60220F
:10019E00E52F75F00A842432F8E6FD7F011208F887
:1001AE00E52F75F00A84743225F0F8E6FD7F021211
:1001BE0008F8AD427F031208F8AF277E00EF640205
:1001CE0070047D0180027D003001047C0180027C80
:1001DE0000ED5CFDEF4E70047F0180027F00EF4D5D
:1001EE00FFE527FD7C00640170047E0180027E0025
:1001FE00EE4FFFED64034C70047E0180027E00EE34
:10020E004F6022E52E75F00A842432F8E6FD7F0455
:10021E001208F8E52E75F00A84743225F0F8E6FD22
:10022E007F051208F8AD427F061208F8AF277E0050
:10023E00EF640370047D0180027D003001047C01B7
:10024E0080027C00ED5CFDEF4E70047F0180027F2A
:10025E0000EF4DFFE527FD7C00640270047E0180F7
:10026E00027E00EE4FFFED64014C70047E018002B1
:10027E007E00EE4F6022E52D75F00A842432F8E6FA
:10028E00FD7F071208F8E52D75F00A84743225F00B
:0E029E00F8E6FD7F081208F87FFF12096322C0
:10078100AE2BAF2C7C007D0A1205EF74322FF8E6F8
:10079100FD7F061208F8AE2BAF2C7C007D0A1205F6
:1007A100EF74322DF8E6FD7F071208F8AD3E7F08A1
:0807B1001208F87FFF02096342
:07000300AE071FEE70FA22A8
:1002AC0020B02F7F6412000320B02720B008120565
:1002BC009A12088D80F5300009C200E4F530F53152
:1002CC00C2020528C3E5289404748094804003E49A
:1002DC00F52820B12F7F6412000320B12720B1082C
:1002EC0012059A12088D80F5300009C200E4F53031
:1002FC00F531C2020527C3E527940474809480402D
:10030C0003E4F52730B2030203D87F6412000330F4
:10031C00B2030203D820B20B12000E12059D120874
:10032C008D80F2300009C200E4F530F531C202E5EF
:10033C0028FD7C0064017016AF231207EA8F23C3DB
:10034C00EF946074809480403BE4F5238036ED6438
:10035C00024C7016AF221207EA8F22C3EF9460741E
:10036C00809480401FE4F522801AE5286403701401
:10037C00AF211207EA8F21C3EF9460748094804000
:10038C0003E4F521AF277E00EF64017010052FC345
:10039C00E52F9418748094804003E4F52FEF6402E9
:1003AC004E7010052EC3E52E943C7480948040034F
:1003BC00E4F52EE52764037010052DC3E52D943C60
:1003CC00748094804003E4F52D1207B930B3030216
:1003DC00049F7F6412000330B30302049F20B32BED
:1003EC00E52870047F0180027F00E52770047E0100
:1003FC0080027E00EE5F60081206441207818006C0
:10040C0012000E12059D12088D80D2300009C20018
:10041C00E4F530F531C202E528FD7C006401701171
:10042C00AF231207078F23EF6459702175232380A4
:10043C001CED64024C7009AF221207078F22800D4D
:10044C00E52864037007AF211207078F21AF277EC1
:10045C0000EF64017010152FE52FF4700274FF701B
:10046C002F752F17802AEF64024E7010152EAF2EA9
:10047C00FEBEFF1CBFFF19752E3B8014E5276403DD
:10048C00700E152DAF2DFEBEFF06BFFF03752D3B65
:04049C001207B92268
:03059A0012000E3E
:10059D00AF22120945EFB52E047D0180027D00AF1B
:1005AD0021120945EFB52D047F0180027F00EF5D1B
:1005BD00FDAF23120945EFB52F047F0180027F00A7
:1005CD00EF5D6002D2003002097F041206CEC280B8
:1005DD00800A20020C7F041206CED280E4FF1206A0
:0205ED00CE221C
:10090A001209711207B912093512088D1202AC12B6
:07091A00000E12059D80F2A2
:1008D400E4FEEEC3940874809480500FC297EF1323
:0B08E40092A3EFC313FFD2970E80E732
:0108EF0022E6
:10092100C29300C29700D293001208D4AF051208F7
:04093100D4C2932277
:10074400E4FDC29300C29700D293001208D4E4FFE0
:10075400EFC39408748094805011C297EDC313FDC5
:1007640030A303430580D2970F80E5C29300C2975C
:0C07740000D29700C2A300D2A300AF0582
:010780002256
:040954007F327E0070
:0B095800EF1FAC0670011E4C70F62271
:02083F00AD0703
:10084100E4FBEBC39408748094805012C294ED13BE
:100851009294120954D294EDC313FD0B80E47F05E9
:050861007E00020958B1
:1008B100E4FBEBC39408748094805014C294EDC39C
:1008C10013FDD2943094034305801209540B80E246
:0208D100AF0571
:0108D3002202
:10086600C203D2947F787E00120958C2947F207EFC
:1008760003120958D2947F647E00120958A29492FA
:0608860003120954A20355
:01088C002249
:1004AC0002090AE493A3F8E493A34003F68001F253
:1004BC0008DFF48029E493A3F85407240CC8C33351
:1004CC00C4540F4420C8834004F456800146F6DF20
:1004DC00E4800B0102040810204080900686E47E24
:1004EC00019360BCA3FF543F30E509541FFEE49315
:1004FC00A360010ECF54C025E060A840B8E493A3DC
:10050C00FAE493A3F8E493A3C8C582C8CAC583CA06
:10051C00F0A3C8C582C8CAC583CADFE9DEE780BEBE
:0106C6000033
:1005EF00BC000BBE0029EF8DF084FFADF022E4CCF0
:1005FF00F875F008EF2FFFEE33FEEC33FCEE9DECB9
:10060F00984005FCEE9DFE0FD5F0E9E4CEFD22EDFE
:10061F00F8F5F0EE8420D21CFEADF075F008EF2F48
:10062F00FFED33FD4007985006D5F0F222C398FD39
:05063F000FD5F0EA22D6
:00000001FF
