:030000000202F009
:0C02F000787FE4F6D8FD75812202033708
:0B083300C0F9A4B0999282F88090BF39
:10076800011D00011C00011601011B0101140002FA
:1007780012000002190000010814011F00011100F5
:03078800011E004F
:1005F300EF603224FB601314601914601F2403702E
:1006030027E5A0541F4480F5A022E5A0541F44A071
:10061300F5A022E5A0541F44C0F5A022E5A0541F75
:0906230044E0F5A02253A01F22BF
:1007C500EF1FAC0670011E4C70F6EF1FAC067001F2
:0507D5001E4C70F6222D
:10050E00E51B25E02407F8E6FE08E6FF7C037DE800
:10051E001204B97E007F64CFCDCFCECCCE1204B9FB
:10052E0074332FF58274083EF583E493FD7F051234
:10053E0006F67F647E001205569008337F06E4931C
:08054E00FD1206F67F647E0039
:0B055600EF1FAC0670011E4C70F62277
:0706EF007F041206F67F05EF
:1006F600AE077F061205F3E4F5801205F3AF06A8F0
:10070600077401088002C333D8FCF5807F07120501
:04071600F38D8022BD
:1007DA00AE077F061205F37580FF0F1205F38E80B0
:0107EA0022EC
:100661007DFFE4FF1206F67F011206F67F021206F5
:10067100F67F031206F61206EF90083D12054AE5D1
:100681001490083393FD7F0712054F7FFF0207DAAD
:1003E800E51E90083D701893FDE4FF12054FE51BCC
:1003F80090083393FD7F0112054F90083D800FE46C
:1004080093FDE4FF12054F7DFF7F011206F67F0280
:1004180012054CE51B25E02407F8E6FE08E6FF7CFC
:10042800037DE81204B9EF4E601274332FF582741D
:10043800083EF583E493FD7F0412054F12050E7FF5
:090448000712054F7FFF0207DADD
:10037C0090083DE493FDE4FF12054FE51B90083314
:10038C0093FD7F0112054F90083DE493FD7F02120F
:10039C00054FE51E7036E51B25E02407F8E6FE0840
:1003AC00E6FF7C037DE81204B9EF4E601274332F24
:1003BC00F58274083EF583E493FD7F0412054F1219
:1003CC00050E7F0712054F7FFF0207DA7DFF12062D
:0C03DC00EF7F061206F67F071206F622DD
:1007FC00758901758CFC758A17D2A9D2AFD28C225F
:03000B0002021FCF
:10021F00C0E0C0F0C083C082C0D075D000C000C0A5
:10022F0001C002C003C004C005C006C007758CFC26
:10023F00758A170513E51370020512B4200EE51227
:10024F00B40309751200751300631EFF0518E51836
:10025F0070020517D39508E5179400500A7F041212
:10026F0005F3851D808013C3E5189414E5179400DA
:10027F007F04500D1205F37580FFE4FF1205F38024
:10028F00141205F3851D80E4FF1205F37517007531
:10029F00180012012E051AE51A70020519E5162528
:1002AF00E02407F8E6FE08E6B51A1BE519B50616B1
:1002BF00751900751A00E51F64017002051CE51C15
:1002CF0064197002F51CD007D006D005D004D003F6
:1002DF00D002D001D000D0D0D082D083D0F0D0E0E7
:0102EF0032DC
:10078C008F218D2212080C7FA012062C1207EBAFC2
:10079C002112062C1207EBAF2212062C1207EB02C9
:0207AC0008271C
:020691008F21B7
:1006930012080C7FA012062C1207EBAF2112062CB6
:1006A3001207EB12080C7FA112062C1207EB12079C
:0D06B300428F22C2001207AE120827AF22AC
:0106C0002217
:1006C10012080C7F9012062C1207EB7F0312062CE6
:1006D1001207EB12082712080C7F9112062C120741
:0E06E100EB1207428F15C2001207AE02082767
:1005B300AF157E00C3EF943C748094805007750898
:1005C3000575140122C3EF9478EE6480948050077C
:1005D30075080A75140222C3EF94B4EE6480948004
:1005E300500775080F751403227508147514042237
:10012E00E51CB4190040030201F690013FF828289F
:10013E007302018A02018F02019402019902019E4B
:10014E000201A30201A80201AD0201B20201B40232
:10015E0001B90201BE0201C30201C80201CD0201B2
:10016E00D20201D70201DC0201DE0201E00201E24D
:10017E000201E40201E90201EE0201DC751DFF80BD
:10018E0067751DFE8062751DFC805D751DF88058BB
:10019E00751DF08053751DE0804E751DC08049752C
:1001AE001D8080448023751D7F803D751D3F8038E6
:1001BE00751D1F8033751D0F802E751D07802975C7
:1001CE001D038024751D01801FE4F51D801A801506
:1001DE00800E80078000751DE7800D751DDB800881
:1001EE00751DBD8003751D7EAF1C7E00EF700475FE
:1001FE00160122EF64094E700475160222EF641187
:10020E004E700475160322EF64154E7003751604B6
:01021E0022BD
:10000E0020B01C12055220B016E51F7005751F0199
:10001E00800AE4F51FF511F51C75160130B0FD20B0
:10002E00B12412055220B11E051120B119E511FBA4
:10003E007A00640170051203E880EFEB64024A70E7
:10004E00E912037C80E420B26412055220B25EE510
:10005E0011FB7A0064017018051BD3E51B94047420
:10006E008094804003751B0420B2421203E880F88E
:10007E00EB64024A7037E51B25E02407F808746428
:10008E0026F618E436F6E51B25E02407F8E6FE080A
:10009E00E6D394B0EE9404400CE51B25E02407F85B
:1000AE0076040876B020B20512037C80F820B36F78
:1000BE0012055220B369E511FB7A00640170181520
:1000CE001BC3E51B9401748094805003751B0120A3
:1000DE00B34D1203E880F8EB64024A7038E51B2535
:1000EE00E02407F808749C26F61874FF36F6E51B14
:1000FE0025E02407F8E6FE08E6C39490EE9401503E
:10010E000CE51B25E02407F8760108769020B30F46
:10011E0012037C80F8E511700612066112012E2280
:10045100E51B24FE601B14602914603724037045DA
:10046100AE09AF0A7C007D0A1204B9AD077F018095
:1004710031AE0BAF0C7C007D0A1204B9AD077F02CF
:100481008020AE0DAF0E7C007D0A1204B9AD077F4E
:1004910003800FAE0FAF107C007D0A1204B9AD07C7
:1004A1007F0412078C7FE87E031205567FFF120737
:0804B100DA751B01E4F51122CC
:100561007F051205F3E4F5801F1205F37580FFE4A2
:10057100FF1205F30F120691EF75F00AA485F00939
:10058100F50A7F02120691EF75F00AA485F00BF5CA
:100591000C7F03120691EF75F00AA485F00DF50E9C
:1005A1007F04120691EF75F00AA485F00FF5100291
:0205B10007FC45
:10071A0012056112000E1206C11205B3E51124FE7C
:10072A00600C14600E240270EA1203E880E51203DA
:08073A007C80E012045180DB19
:04081B00D2A07F05E3
:08081F0000AE071FEE70F92284
:0F080C00D2A112081BC2A17F0512081FC2A02291
:0C082700C2A112081BD2A17F0502081F0D
:1007AE00C2A0A20092A17F0512081F12081BC2A0B0
:0707BE00D2A17F0502081F14
:1007EB0012081BA2A19200C2A07F0512081FA20033
:0107FB0022DB
:02062C00AD0718
:10062E00E4FCECC39408748094805024C2A07F052F
:10063E0012081FED30E704D2A18002C2A17F05127D
:10064E00081FD2A0ED25E0FD7F0512081F0C80D2F9
:02065E00C2A038
:010660002277
:10074200E4FCECC3940874809480501712081BEDEB
:1007520025E0FD30A103430501C2A07F0512081F59
:050762000C80DFAF0573
:01076700226F
:1002FC0002071AE493A3F8E493A34003F68001F2F7
:10030C0008DFF48029E493A3F85407240CC8C33302
:10031C00C4540F4420C8834004F456800146F6DFD1
:10032C00E4800B0102040810204080900768E47EF2
:10033C00019360BCA3FF543F30E509541FFEE493C6
:10034C00A360010ECF54C025E060A840B8E493A38D
:10035C00FAE493A3F8E493A3C8C582C8CAC583CAB8
:10036C00F0A3C8C582C8CAC583CADFE9DEE780BE70
:01078B00006D
:1004B900BC000BBE0029EF8DF084FFADF022E4CC27
:1004C900F875F008EF2FFFEE33FEEC33FCEE9DECF0
:1004D900984005FCEE9DFE0FD5F0E9E4CEFD22ED36
:1004E900F8F5F0EE8420D21CFEADF075F008EF2F80
:1004F900FFED33FD4007985006D5F0F222C398FD71
:050509000FD5F0EA220D
:00000001FF
