:10034A00000100050009000D001100150019001D2B
:10035A00002100250029002C003000340038003C20
:10036A00004000430047004B004F00520056005A1D
:10037A00005D006100650068006C006F0073007624
:10038A00007A007D008000840087008A008E009138
:10039A0000940097009A009D00A000A300A600A95F
:1003AA0000AC00AF00B200B400B700BA00BC00BF96
:1003BA0000C100C400C600C900CB00CD00CF00D1E7
:1003CA0000D400D600D800DA00DB00DD00DF00E14F
:1003DA0000E200E400E600E700E900EA00EB00EDD5
:1003EA0000EE00EF00F000F100F200F300F400F577
:1003FA0000F500F600F700F700F800F800F800F939
:10040A0000F900F900F900F900F900F900F900F91A
:10041A0000F900F800F800F800F700F700F600F518
:10042A0000F500F400F300F200F100F000EF00EE36
:10043A0000ED00EB00EA00E900E700E600E400E274
:10044A0000E100DF00DD00DB00DA00D800D600D4CE
:10045A0000D100CF00CD00CB00C900C600C400C146
:10046A0000BF00BC00BA00B700B400B200AF00ACD5
:10047A0000A900A600A300A0009D009A009700947E
:10048A000091008E008A008700840080007D007A37
:10049A0000760073006F006C006800650061005D03
:1004AA00005A00560052004F004B004700430040DC
:1004BA00003C003800340030002C002900250021BF
:1004CA00001D001900150011000D000900050001AA
:1004DA00FFFEFFFAFFF6FFF2FFEEFFEAFFE6FFE29A
:1004EA00FFDEFFDAFFD6FFD3FFCFFFCBFFC7FFC385
:1004FA00FFBFFFBCFFB8FFB4FFB0FFADFFA9FFA568
:10050A00FFA2FF9EFF9AFF97FF93FF90FF8CFF8940
:10051A00FF85FF82FF7FFF7BFF78FF75FF71FF6E0C
:10052A00FF6BFF68FF65FF62FF5FFF5CFF59FF56C5
:10053A00FF53FF50FF4DFF4BFF48FF45FF43FF406E
:10054A00FF3EFF3BFF39FF36FF34FF32FF30FF2EFD
:10055A00FF2BFF29FF27FF25FF24FF22FF20FF1E75
:10056A00FF1DFF1BFF19FF18FF16FF15FF14FF12CF
:10057A00FF11FF10FF0FFF0EFF0DFF0CFF0BFF0A0D
:10058A00FF0AFF09FF08FF08FF07FF07FF07FF062B
:10059A00FF06FF06FF06FF06FF06FF06FF06FF0629
:1005AA00FF06FF07FF07FF07FF08FF08FF09FF0A0B
:1005BA00FF0AFF0BFF0CFF0DFF0EFF0FFF10FF11CD
:1005CA00FF12FF14FF15FF16FF18FF19FF1BFF1D6F
:1005DA00FF1EFF20FF22FF24FF25FF27FF29FF2BF5
:1005EA00FF2EFF30FF32FF34FF36FF39FF3BFF3E5D
:1005FA00FF40FF43FF45FF48FF4BFF4DFF50FF53AE
:10060A00FF56FF59FF5CFF5FFF62FF65FF68FF6BE4
:10061A00FF6EFF71FF75FF78FF7BFF7FFF82FF850B
:10062A00FF89FF8CFF90FF93FF97FF9AFF9EFFA21F
:10063A00FFA5FFA9FFADFFB0FFB4FFB8FFBCFFBF26
:10064A00FFC3FFC7FFCBFFCFFFD3FFD6FFDAFFDE23
:10065A00FFE2FFE6FFEAFFEEFFF2FFF6FFFAFFFE18
:100AA100021C00000216000002180086021A010A48
:10000300EF1FAC0670011E4C600A7D0C7CA9DCFE60
:04001300DDFC80ECA4
:0100170022C6
:1008D5007510077511D0751200751301AC12AD13A3
:1008E500AE10AF111201E3AC06AD07EC120129E41D
:1008F500FBFA7920784012001E1201628E1E8F1FAE
:10090500438910AE1EAF1FAB07AA06EA3395E0F97F
:10091500F8C3E49BFFE49AFE740199FDE498FCE4B6
:10092500FB7A01F9F8120A5D8F8DAE1EAF1FAB077A
:10093500AA06EA3395E0F9F8C3E49BFFE49AFE744E
:100945000199FDE498FCE4FB7A01F9F8120A5DAF20
:10095500038F8BD2BBD2ABD2AFD28ED2A5D2A7207A
:10096500A532000020A52D74052513F513E43512D5
:10097500F512D3E5139432E5126480948040067530
:100985001200751332AC12AD137E097FC41201E358
:100995008E1E8F1F20A7C8000020A7C374FB251338
:1009A500F51374FF3512F512C3E5139401E51264CE
:1009B5008094805006751200751301AC12AD137E3C
:0C09C500097FC41201E38E1E8F1F809377
:03001B0002066A70
:10066A00C0E0C0F0C083C082C0D075D008AE1EAF53
:10067A001FAB0FAA0EEA3395E0F9F8C3E49BFFE437
:10068A009AFE740199FDE498FCE4FB7A01F9F812E8
:10069A000A5D8F8DAE1EAF1FAB0FAA0EEA3395E02F
:1006AA00F9F8C3E49BFFE49AFE740199FDE498FC0F
:1006BA00E4FB7A01F9F8120A5DAF0B8F8BE5172577
:1006CA00E0FFE51633FE744A2FF58274033EF58384
:1006DA00C3740193951DE51C6480F8E493648098C3
:1006EA004018C291752000752102E521152170027A
:1006FA001520E521452070F2D290E51725E0FFE5A7
:10070A001633FE744A2FF58274033EF583C37401CF
:10071A0093951DE51C6480F8E4936480985018C290
:10072A0090752000752102E521152170021520E53A
:10073A0021452070F2D291E51925E0FFE51833FE34
:10074A00744A2FF58274033EF583C3740193951D91
:10075A00E51C6480F8E4936480984018C29375207D
:10076A0000752102E521152170021520E521452099
:10077A0070F2D292E51925E0FFE51833FE744A2F8C
:10078A00F58274033EF583C3740193951DE51C64D9
:10079A0080F8E4936480985018C2927520007521FD
:1007AA0002E521152170021520E521452070F2D2BB
:1007BA0093E51B25E0FFE51A33FE744A2FF5827490
:1007CA00033EF583C3740193951DE51C6480F8E428
:1007DA00936480984018C295752000752102E5211E
:1007EA00152170021520E521452070F2D294E51BEF
:1007FA0025E0FFE51A33FE744A2FF58274033EF5AD
:10080A0083C3740193951DE51C6480F8E4936480A6
:10081A00985018C294752000752102E5211521709F
:10082A00021520E521452070F2D295E515451460A0
:10083A000EE51F251DF51DE51E351CF51C800DC393
:10084A00E51D951FF51DE51C951EF51CD3E51D94A8
:10085A00FAE51C64809480400C751C00751DFA75BD
:10086A001400751500C3E51D9406E51C6480947F89
:10087A00500C751CFF751D067514007515010517BA
:10088A00E51770020516B4900BE516B40106751645
:10089A00007517000519E51970020518B4900BE5E3
:1008AA0018B40106751800751900051BE51B7002BE
:1008BA00051AB4900BE51AB40106751A00751B00E7
:0B08CA00D0D0D082D083D0F0D0E0323C
:10001E00EC4D6011E8497017ED33EC3304600DE4DC
:10002E00FCFFFEFD22E933E8330470F80201CE1224
:10003E00019958046009E4CC248150062850090225
:10004E0001D82840030201D5C0E0EB4A7044B980C4
:10005E0006D0E0FB0201C4EF4E701CBD8008EBFF22
:10006E00EAFEE9FD80EBE98DF0A4FEE5F002010762
:10007E00E9CDF9EAFEEBFFEF89F0A4FCE5F0CE89BD
:10008E00F0A42EFFE435F0CD89F0A42DFEE435F07A
:10009E008067EF4E7005BD80D780C3EF8BF0A4ACA8
:1000AE00F0EE8BF0A42CFCE435F0F8EF8AF0A42CE3
:1000BE00E5F038FCE433CB8DF0A42CFCE5F03BF8F6
:1000CE00EE8AF0A42CFCE5F038F8E433CF89F0A4E6
:1000DE002CFCE5F038CF3400CE89F0A42FFFE5F0EC
:1000EE003EFEE433C98DF0A42EFEE5F039CD8AF044
:1000FE00A42FFFE5F03EFEE43DFD33D0E0FB5007BC
:10010E000BBB000F0201D8EC2CFCEF33FFEE33FEDD
:06011E00ED33FD0201B00B
:1001240075F020800E75F010800575F0087D007E56
:10013400007F003392D530D503120219EC334010FE
:10014400EF33FFEE33FEED33FDEC33FCD5F0ED225F
:0E015400E5F0247EA2D513CC92E7CDCEFF229B
:10016200EDD2E7CD33EC3392D524814006E4FFFE95
:10017200FDFC22FCE4CFCECDCC24E0501174FF80F4
:10018200EDC3CC13CCCD13CDCE13CECF13CF047091
:07019200F030D5DE02021976
:10019900E9D2E7C933E833F892D5EDD2E7CD33ECAC
:0701A90033FC5002B2D52225
:1001B000EC30E7100FBF000C0EBE00080DBD0004B0
:1001C0000BEB6014A2D5EB13FCED92E7FD2274FF5C
:1001D000FCFDFEFF22E480F8A2D574FF13FC7D80B5
:0301E000E480EFC9
:030000000209D121
:0C09D100787FE4F6D8FD758121020A1839
:1001E300C2D5EC30E709B2D5E4C39DFDE49CFCEE37
:1001F30030E715B2D5E4C39FFFE49EFE120227C386
:10020300E49DFDE49CFC800312022730D507C3E480
:060213009FFFE49EFE22A5
:100A5D00C2D5E830E70FB2D5E4C39BFBE49AFAE4C4
:100A6D0099F9E498F8EC30E717B2D5120A9312020F
:100A7D00B8E4C39BFBE49AFAE499F9E498F880038F
:100A8D001202B830D50DE4C39FFFE49EFEE49DFD38
:040A9D00E49CFC22B7
:0E021900C3E49FFFE49EFEE49DFDE49CFC22F6
:1009DD000208D5E493A3F8E493A34003F68001F253
:1009ED0008DFF48029E493A3F85407240CC8C3331B
:1009FD00C4540F4420C8834004F456800146F6DFEA
:100A0D00E4800B0102040810204080900AA1E47ECE
:100A1D00019360BCA3FF543F30E509541FFEE493DE
:100A2D00A360010ECF54C025E060A840B8E493A3A5
:100A3D00FAE493A3F8E493A3C8C582C8CAC583CAD0
:100A4D00F0A3C8C582C8CAC583CADFE9DEE780BE88
:010AB1000044
:10022700BC000BBE0029EF8DF084FFADF022E4CCBB
:10023700F875F008EF2FFFEE33FEEC33FCEE9DEC84
:10024700984005FCEE9DFE0FD5F0E9E4CEFD22EDCA
:10025700F8F5F0EE8420D21CFEADF075F008EF2F14
:10026700FFED33FD4007985006D5F0F222C398FD05
:050277000FD5F0EA22A2
:10027C0075F008758200EF2FFFEE33FECD33CDCC39
:10028C0033CCC58233C5829BED9AEC99E5829840BC
:10029C000CF582EE9BFEED9AFDEC99FC0FD5F0D699
:1002AC00E4CEFBE4CDFAE4CCF9A88222B800C1B9C3
:1002BC000059BA002DEC8BF084CFCECDFCE5F0CB01
:1002CC00F97818EF2FFFEE33FEED33FDEC33FCEB3A
:1002DC0033FB10D703994004EB99FB0FD8E5E4F9F5
:1002EC00FA227818EF2FFFEE33FEED33FDEC33FCE2
:1002FC00C933C910D7059BE99A4007EC9BFCE99AD6
:10030C00F90FD8E0E4C9FAE4CCFB2275F010EF2F1A
:10031C00FFEE33FEED33FDCC33CCC833C810D7071A
:10032C009BEC9AE899400AED9BFDEC9AFCE899F855
:0E033C000FD5F0DAE4CDFBE4CCFAE4C8F922E8
:00000001FF
