:10070E000D0A206465627567BCECB2E2C4DAC8DD1E
:10071E00A3BA0D0A002041D7E9BCECB2E220206C4E
:10072E00696E65203D2025640D0A00205341313D40
:10073E0025643B205341323D25643B205341333DDC
:10074E0025643B205341343D25643B2053415F6774
:10075E00726F75703D25640D0A002041303D256491
:10076E003B2041313D25643B2041323D25643B20F9
:10077E00413231303D25640D0A002042D7E9BCECF0
:10078E00B2E220206C696E65203D2025640D0A00C2
:10079E00205342313D25643B205342323D25643B7C
:1007AE00205342333D25643B205342343D25643B68
:1007BE002053425F67726F75703D25640D0A0020ED
:1007CE0042303D25643B2042313D25643B20423280
:1007DE003D25643B20423231303D25640D0A002018
:1007EE0043D7E9BCECB2E220206C696E65203D2057
:1007FE0025640D0A00205343313D25643B205343AD
:10080E00323D25643B205343333D25643B20534307
:10081E00343D25643B2053435F67726F75703D25F1
:10082E00640D0A002043303D25643B2043313D25B5
:10083E00643B2043323D25643B20433231303D251D
:10084E00640D0A002044D7E9C5D0B6CF20206C69CC
:10085E006E65203D2025640D0A00205344313D2550
:10086E00643B205344323D25643B205344333D25A5
:10087E00643B205344343D25643B2053445F6772F0
:10088E006F75703D25640D0A002044303D25643B94
:10089E002044313D25643B2044323D25643B2044B9
:1008AE003231303D25640D0A002045D7E9BCECB24B
:1008BE00E220206C696E65203D2025640D0A002023
:1008CE005345313D25643B205345323D25643B2045
:1008DE005345333D25643B2053455F67726F7570FA
:1008EE003D25640D0A002045303D25643B204531F1
:1008FE003D25643B2045323D25643B204532313059
:10090E003D25640D0A000D0A004C6F6164696E6727
:10091E002E2E2E0D0A003D00205F202020205F206D
:10092E002020202020202020202020205F5F5F20FC
:10093E005F20202020202020202020205F2020202B
:10094E00200D0A007C207C2020285F295F205F205C
:10095E00205F5F5F2020202F205F5F7C207C5F2048
:10096E00205F5F5F205F5F7C207C5F5F200D0A0051
:10097E007C207C5F5F7C207C2027205C2F202D5FDD
:10098E0029207C20285F5F7C2027205C2F202D5F74
:10099E0029205F7C202F202F200D0A007C5F5F5FB7
:1009AE005F7C5F7C5F7C7C5F5C5F5F5F7C20205C3C
:1009BE005F5F5F7C5F7C7C5F5C5F5F5F5C5F5F7CCB
:1009CE005F5C5F5C200D0A0056657273696F6E3A4C
:1009DE0009090956312E302E3109202020200D0A0A
:1009EE0000417574686F723A0909090947737820D6
:1009FE00202009202020200D0A00D0BEC6ACD0C574
:100A0E00CFA23A2020202020535443313546324B7A
:100A1E00363053320D0A00CFB5CDB3D6F7C6B53A40
:100A2E002020202020256C640D0A00B2A8CCD8C24C
:100A3E00CA3A2020202009202025640D0A00CAE48D
:100A4E00C8EB30783034B2E9BFB4D6B8C1EEB0EFEF
:100A5E00D6FA2020202020200D0A000D0A457272A1
:100A6E006F722831293A20534131207E2053413470
:100A7E00CFDFB3F6B4ED2CD2D1CDA3D6B9BCECB248
:100A8E00E20D0A000D0A4572726F722832293A2061
:100A9E00534231207E20534234CFDFB3F6B4ED2CD7
:100AAE00D2D1CDA3D6B9BCECB2E20D0A000D0A45E7
:100ABE0072726F722833293A20534331207E2053AD
:100ACE004334CFDFB3F6B4ED2CD2D1CDA3D6B9BC1F
:100ADE00ECB2E20D0A000D0A4572726F72283429CB
:100AEE003A20534431207E20534434CFDFB3F6B442
:100AFE00ED2CD2D1CDA3D6B9BCECB2E20D0A000DCD
:100B0E000A4572726F722835293A20534531207E7C
:100B1E0020534533CFDFB3F6B4ED2CD2D1CDA3D6CF
:100B2E00B9BCECB2E20D0A000D0AC3BBD3D0CFDFC5
:100B3E00B1BBC0ADB5CDA1A30D0A006666000D0A0E
:100B4E002564CFDFB1BBC0ADB5CDA1A30D0A002585
:100B5E00640066662564000D0A4445425547D2D1AD
:100B6E00BFAAC6F40D0A000D0A4445425547D2D11C
:100B7E00B9D8B1D50D0A002A3D3D3D3D3D3D3D3D27
:100B8E003D3D3D3D20434D44204C495354203D3D79
:100B9E003D3D3D3D3D3D3D3D3D3D2A0D0A00203054
:100BAE007830302D2D2D2D2D2D2D2D2D2D424F4FBD
:100BBE0054CDA3D6B9D6B8C1EE20202020202020B7
:100BCE0020200D0A0020307830312D2D2D2D2D2D89
:100BDE002D2D2D2D5354454550B5A5B2BDB2E2CAAB
:100BEE00D4D6B8C1EE202020200D0A002030783057
:100BFE00322D2D2D2D2D2D2D2D2D2D524F4C4CB901
:100C0E00F6B6AFB2E2CAD4D6B8C1EE20202020206C
:100C1E000D0A0020307830332D2D2D2D2D2D2D2D1C
:100C2E002D2D4445425547BFAAB9D86465627567F4
:100C3E00D6B8C1EE2020200D0A0020307830342D99
:100C4E002D2D2D2D2D2D2D2D2D48454C50D6B8C189
:100C5E00EEC1D0B1ED2020202020202020200D0A32
:100C6E000020307830352D2D2D2D2D2D2D2D2D2D87
:100C7E005245424F4F54D6D8C6F420202020202073
:100C8E00202020090D0A0020307830362D2D2D2DF4
:100C9E002D2D2D2D2D2D4155544FD7D4B6AFBCEC47
:0E0CAE00B2E22020202020202020090D0A0084
:10000300015600016A00C10BC109C10A0251FFFF79
:0A0013000254FFFF015302015F02D7
:0F163300EF4E600A000000EF1F70F51E80F222DC
:10002600EF4E60120000007D0B7CBEDCFEDDFCEFB7
:060036001F70ED1E80EAC0
:01003C0022A1
:1013C0008E228F23E5A2543FF5A2759850438E409C
:1013D000AE22AF23AB07AA06E4F9F8FF7E307D2AE0
:1013E000FC1214C5EFF404F58BAE22AF23AB07AAB1
:1013F00006E4F9F8FF7E307D2AFC1214C5C3E49F91
:10140000FFE49EFE74019DFDE49CFC7808121031FF
:091410008F8DD28ED2ACD2AF2236
:101470008E228F2353BAFE759A50AE22AF23AB074C
:10148000AA06E4F9F8FF7E307D2AFC1214C5EFF4B9
:1014900004F5D7AE22AF23AB07AA06E4F9F8FF7E26
:1014A000307D2AFC1214C5C3E49FFFE49EFE740144
:1014B0009DFDE49CFC78081210318FD6438E1443B6
:0514C000AF01D2AF22D4
:091642002009FDEFD209F59922FF
:1015AE008B088A09890AAB08AA09A90A12101860C1
:1015BE0013050AE50A7002050914F9121018FF1234
:0515CE00164280E2223C
:09164B00200AFDEFD20AF59B22F2
:1015D3008B378A388939AB37AA38A9391210186082
:1015E300130539E5397002053814F9121018FF1282
:0515F300164B80E2220E
:05001E00AE07021642CE
:061546008B228A23892498
:10154C007534007535007536258B378A38893985A1
:10155C00343A85353B85363C7B017A00790012158F
:10156C00807B017A0079001215D375340075350033
:03157C00753600C1
:01157F002249
:0300230002160FB3
:10160F00309808C29885535F859953309904C299D1
:03161F00C20932CB
:030043000215F8AB
:1015F800C0E0E59A30E003539AFEE59A30E10553DE
:071608009AFDC20AD0E03296
:1000460085515485525520B50C20B60920B7062097
:10005600C1030201B0E4F55DF55EF55BF55CF559AB
:10006600F55AF557F558F568F569F566F567F564D7
:10007600F565F562F563F560F561F551F552300BFE
:10008600187BFF7A07790E120D1E7BFF7A077923FC
:10009600855140855241120D1EA2B5E433756000AC
:1000A600F561A2B6E433756200F563A2B7E4337571
:1000B6006400F565A2C1E433756600F567E563255E
:1000C600E0FFE562334560FCE5614FFDAE64E56542
:1000D6007802C333CE33CED8F9FFEE4CFCEF4DFD9C
:1000E600AE66E5677803C333CE33CED8F9FFEE4C60
:1000F600FEEF4DFFC3740F9FF569E49EF568300B64
:10010600267BFF7A077939856040856141856242A1
:10011600856343856444856545856646856747F5F9
:1001260048856949120D1ED3E5699404E568648023
:10013600948040037F0122A2CCE433755700F55822
:10014600A297E433755900F55AA2CDE433755B00E6
:10015600F55CE55A25E0FFE559334557FCE5584F70
:10016600FDAE5BE55C7802C333CE33CED8F9FFEE45
:100176004CF55DEF4DF55E300B207BFF7A07796815
:10018600855740855841855942855A43855B448544
:100196005C45855D46F547120D1EAE68E569780338
:1001A600C333CE33CED8F90206F720C20C20C309DA
:1001B60020C40620A00302030CE4F55DF55EF55BA2
:1001C600F55CF559F55AF557F558F568F569F5668C
:1001D600F567F564F565F562F563F560F561F5516A
:1001E600755220300B0F7BFF7A0779888551408541
:1001F6005241120D1EA2C2E433756000F561A2C31E
:10020600E433756200F563A2C4E433756400F565F2
:10021600A2A0E433756600F567E56325E0FFE562B5
:10022600334560FCE5614FFDAE64E5657802C33396
:10023600CE33CED8F9FFEE4CFCEF4DFDAE66E5674A
:100246007803C333CE33CED8F9FFEE4CFEEF4DFF25
:10025600C3740F9FF569E49EF568300B267BFF7A21
:1002660007799E8560408561418562428563438545
:100276006444856545856646856747F548856949C9
:10028600120D1ED3E5699404E568648094804003EA
:100296007F0222A2B2E433755700F558A2C0E433B8
:1002A600755900F55AA2B3E433755B00F55CE55A5F
:1002B60025E0FFE559334557FCE5584FFDAE5BE5B4
:1002C6005C7802C333CE33CED8F9FFEE4CF55DEF42
:1002D6004DF55E300B207BFF7A0779CD855740853B
:1002E6005841855942855A43855B44855C45855D01
:1002F60046F547120D1EAE68E5697803C333CE3363
:10030600CED8F90206F720A40C20A50920A60620BF
:10031600A703020468E4F55DF55EF55BF55CF55947
:10032600F55AF557F558F568F569F566F567F56414
:10033600F565F562F563F560F561F5517552403086
:100346000B0F7BFF7A0779ED855140855241120DDF
:100356001EA2A4E433756000F561A2A5E4337562BC
:1003660000F563A2A6E433756400F565A2A7E4333D
:10037600756600F567E56325E0FFE562334560FCD9
:10038600E5614FFDAE64E5657802C333CE33CED862
:10039600F9FFEE4CFCEF4DFDAE66E5677803C3331F
:1003A600CE33CED8F9FFEE4CFEEF4DFFC3740F9F50
:1003B600F569E49EF568300B267BFF7A087903859C
:1003C60060408561418562428563438564448565F5
:1003D60045856646856747F548856949120D1ED3EA
:1003E600E5699404E5686480948040037F0322A253
:1003F600A2E433755700F558A2A1E433755900F508
:100406005AA2A3E433755B00F55CE55A25E0FFE5E7
:1004160059334557FCE5584FFDAE5BE55C7802C3A2
:1004260033CE33CED8F9FFEE4CF55DEF4DF55E30A9
:100436000B207BFF7A0879328557408558418559CC
:1004460042855A43855B44855C45855D46F5471282
:100456000D1EAE68E5697803C333CE33CED8F902F4
:1004660006F720C50C20C609208006208103020558
:10047600C4E4F55DF55EF55BF55CF559F55AF5579F
:10048600F558F568F569F566F567F564F565F5629D
:10049600F563F560F561F551755260300B0F7BFF22
:1004A6007A087952855140855241120D1EA2C5E443
:1004B60033756000F561A2C6E433756200F563A288
:1004C60080E433756400F565A281E433756600F552
:1004D60067E56325E0FFE562334560FCE5614FFDB6
:1004E600AE64E5657802C333CE33CED8F9FFEE4C61
:1004F600FCEF4DFDAE66E5677803C333CE33CED849
:10050600F9FFEE4CFEEF4DFFC3740F9FF569E49EB5
:10051600F568300B267BFF7A08796885604085612F
:1005260041856242856343856444856545856646A3
:10053600856747F548856949120D1ED3E569940418
:10054600E5686480948040037F0422A286E43375C4
:100556005700F558A285E433755900F55AA287E489
:1005660033755B00F55CE55A25E0FFE559334557E1
:10057600FCE5584FFDAE5BE55C7802C333CE33CE67
:10058600D8F9FFEE4CF55DEF4DF55E300B207BFFA5
:100596007A087997855740855841855942855A4347
:1005A600855B44855C45855D46F547120D1EAE6844
:1005B600E5697803C333CE33CED8F90206F7208235
:1005C6000920830620840302070BE4F55DF55EF53A
:1005D6005BF55CF559F55AF557F558F568F569F583
:1005E60066F567F564F565F562F563F560F561F541
:1005F60051755280300B0F7BFF7A0879B7855140D1
:10060600855241120D1EA282E433756000F561A287
:1006160083E433756200F563A284E433756400F500
:1006260065E56325E0FFE562334560FCE5614FFD66
:10063600AE64E5657802C333CE33CED8F9FFEE4C0F
:10064600FEEF4DFFC3740F9FF569E49EF568300B0E
:10065600207BFF7A0879CD856040856141856242BD
:10066600856343856444856545F546856947120D6E
:100676001ED3E5699403E5686480948040037F0592
:1006860022A292E433755700F558A2C7E433755990
:1006960000F55AA293E433755B00F55CE55A25E054
:1006A600FFE559334557FCE5584FFDAE5BE55C78F1
:1006B60002C333CE33CED8F9FFEE4CF55DEF4DF5E0
:1006C6005E300B207BFF7A0879F4855740855841C8
:1006D600855942855A43855B44855C45855D46F56B
:1006E60047120D1EAE68E5697803C333CE33CED804
:1006F600F9255EFFE55D3EFEEF2552F552EE3551DA
:08070600F5517F00227F002263
:10127B007BFF7A097914120D1E7BFF7A09791712FD
:10128B000D1EE4F522AF22EF3395E0FEC3EF94324F
:10129B00EE6480948050147BFF7A097924120D1E22
:1012AB007F327E00121633052280DA7BFF7A0979B2
:1012BB0014120D1E7BFF7A097926120D1E7BFF7A05
:1012CB00097952120D1E7BFF7A09797E120D1E7B56
:1012DB00FF7A0979AA120D1E7BFF7A097914120D78
:1012EB001E7BFF7A0979D6120D1E7BFF7A0979EFE7
:1012FB00120D1E7BFF7A0A7908120D1E7BFF7A0AEC
:10130B0079257543007542C07541A8754000120DD3
:10131B001E7BFF7A0A7939754025754180120D1EA7
:09132B007BFF7A0A794C020D1EC9
:10150900E55624FE601514601A14601F1460242423
:101519000470297BFF7A0A7969801E7BFF7A0A7930
:101529009280167BFF7A0A79BB800E7BFF7A0A7953
:0D153900E480067BFF7A0B790D120D1E2257
:101622007F807E251214707F807E251213C00212E5
:011632007B3C
:10141900E5567040E552B4FF16E551B4FF117BFF64
:101429007A0B7936120D1E7BFF7A0B794980347B52
:10143900FF7A0B794C855140855241120D1E7BFF75
:101449007A0B795D85512585522612154674FFF56B
:1014590051F552221215097BFF7A0B796075250027
:0714690085562612154622EC
:10118800121622E55360FC24FE601B1460251460CF
:101198003B147003021227147003021259240570BD
:1011A800E2E4F553800085566A1200468F56121401
:1011B8001980D0B20B7BFF300B067A0B796580045F
:1011C8007A0B7975120D1E855F5380B77BFF7A09FC
:1011D8007914120D1E7BFF7A0B7985120D1E7BFF89
:1011E8007A0B79AC120D1E7BFF7A0B79D3120D1E88
:1011F8007BFF7A0B79FA120D1E7BFF7A0C7921128C
:101208000D1E7BFF7A0C7948120D1E7BFF7A0C7934
:101218006F120D1E7BFF7A0C7995120D1E802CE43F
:10122800F55DF55EF55BF55CF559F55AF557F5583A
:10123800F568F569F566F567F564F565F562F563D2
:10124800F560F561F551F55212127BE4F553021180
:101258008B85566A1200468F56E56AB5560FE555D6
:1012680065527004E5546551700302118B1214190C
:0312780002118BD5
:03000000021334B4
:0C133400787FE4F6D8FD75816A02137B17
:10101800BB010689828A83E0225002E722BBFE02D6
:09102800E32289828A83E4932209
:1014C500C2D5E830E70FB2D5E4C39BFBE49AFAE452
:1014D50099F9E498F8EC30E717B2D51214FB12101D
:1014E500C0E4C39BFBE49AFAE499F9E498F8800315
:1014F5001210C030D50DE4C39FFFE49EFEE49DFDB0
:04150500E49CFC2244
:10103100E86010ECA2E713FCED13FDEE13FEEF13D5
:04104100FFD8F022C2
:100CBC00E54C2440F8E6054C22783D30070278409C
:100CCC00E475F0011211520210182000EB7F2ED2A5
:100CDC00008018EF540F2490D43440D4FF30040B10
:100CEC00EF24BFB41A0050032461FFE54D600215D8
:100CFC004D0550E5507002054F30070D783DE475F9
:100D0C00F001121152EF02107202001E7403D2078E
:100D1C008003E4C207F54C8B3D8A3E893FE4F54DD8
:100D2C00F54FF550E54D60077F20120CF780F575F7
:100D3C004EFFC201C200C202C203C205C206C208F3
:100D4C00120CC5FF700D3007057F00120D08AF5057
:100D5C00AE4F22B4255FC2D5C204120CC5FF24D0FD
:100D6C00B40A00501A75F00A784D30D50508B6FF54
:100D7C000106C6A426F620D5047002D20380D9241D
:100D8C00CFB41A00EF5004C2E5D204020F08D2010E
:100D9C0080C6D20080C0D20280BCD2D580BAD20527
:100DAC0080B47F20120CF72002077401B54D00406F
:100DBC00F1120CBCFF120CF7020D30D208D20680D7
:100DCC0095120CBCFB120CBCFA120CBCF94A4B7001
:100DDC000679D97A0F7BFF20022EE54D602A7E0022
:100DEC008E8275830012104560060EEE654E70F013
:100DFC00C2D5EBC0E0EAC0E0E9C0E0EE120F4FD084
:100E0C00E0F9D0E0FAD0E0FB121018FF60AAEBC0BA
:100E1C00E0EAC0E0E9C0E0120CF7D0E02401F9D020
:100E2C00E03400FAD0E0FBE54E0460DCD54ED9800E
:100E3C00877BFF7A0F794BD202809C7910800279E4
:100E4C0008C206C2088008D2D5790A8004790AC281
:100E5C00D5E54E047002F54EE4FAFDFEFF120CBC13
:100E6C00FC7B08200113120CBCFD7B1030000A1215
:100E7C000CBCFE120CBCFF7B20EC3382D592D550FF
:100E8C0013C3E43000069FFFE49EFEE42001039DA3
:100E9C00FDE49CFCE4CBF8C201EC700CCFCECDCCC5
:100EAC00E824F8F870F38017C3EF33FFEE33FEED50
:100EBC0033FDEC33FCEB33FB994002FB0FD8E9EB31
:100ECC00300105F8D0E0C448B201C0E00AEC4D4E48
:100EDC004F78207B0070C2EAB54E0040BCC0E012D7
:100EEC000F51D0F0D0E0200104C4C0E0C4B201C066
:100EFC00F0120CE0D0F0D5F0EB020D301211620DB7
:100F0C00CD530E47580D9E4C0D9A420E4B4F0E531F
:0F0F1C00440E53490DB3430E59550E3D460E3D3D
:100F2B00450E3D470FF9500DA22D0DA62E0DC92BC9
:100F3B000DAA230DC7200FE22A0D624800000DC138
:100F4B003F3F3F00790AA2D5200314300509B910A1
:100F5B00020404B9080104A2D520060250010420A2
:100F6B0002689202B54D005034C0E07F2030031967
:100F7B007F30A20272067205500F120FA8C202C276
:100F8B0006C205C2087F30800F300503E9C0E012AE
:100F9B000CF7300503D0E0F9D0E0B54DCC30051798
:100FAB007F30B9100C120CF77F583004077F788014
:100FBB0003B90803120CF73002057F2D020CF77FE3
:100FCB00202008F87F2B2006F322920280CF286E78
:100FDB00756C6C2900D201120CBC3001F8C201787F
:100FEB004D30D50108F6020D622D50434958120CB5
:100FFB00BC2403B405004001E4900FF493120CE8F9
:0D100B00743A120CE8D203754D04020E4732
:10158000853740853841853942EBC53AFBEAC53B92
:10159000FAE9C53CF97F097843121018F60809E901
:0E15A00070010ADFF4AB3AAA3BA93C020D1819
:10134000021188E493A3F8E493A34003F68001F22A
:1013500008DFF48029E493A3F85407240CC8C333AE
:10136000C4540F4420C8834004F456800146F6DF7D
:10137000E4800B0102040810204080900003E47E0A
:10138000019360BCA3FF543F30E509541FFEE49372
:10139000A360010ECF54C025E060A840B8E493A339
:1013A000FAE493A3F8E493A3C8C582C8CAC583CA64
:1013B000F0A3C8C582C8CAC583CADFE9DEE780BE1C
:01001D0000E2
:10104500BB010CE58229F582E5833AF583E0225060
:1010550006E92582F8E622BBFE06E92582F8E222AA
:0D106500E58229F582E5833AF583E49322C4
:10107200BB010689828A83F0225002F722BBFE015D
:02108200F32257
:1010840075F008758200EF2FFFEE33FECD33CDCC23
:1010940033CCC58233C5829BED9AEC99E5829840A6
:1010A4000CF582EE9BFEED9AFDEC99FC0FD5F0D683
:1010B400E4CEFBE4CDFAE4CCF9A88222B800C1B9AD
:1010C4000059BA002DEC8BF084CFCECDFCE5F0CBEB
:1010D400F97818EF2FFFEE33FEED33FDEC33FCEB24
:1010E40033FB10D703994004EB99FB0FD8E5E4F9DF
:1010F400FA227818EF2FFFEE33FEED33FDEC33FCCC
:10110400C933C910D7059BE99A4007EC9BFCE99ABF
:10111400F90FD8E0E4C9FAE4CCFB2275F010EF2F04
:10112400FFEE33FEED33FDCC33CCC833C810D70704
:101134009BEC9AE899400AED9BFDEC9AFCE899F83F
:0E1144000FD5F0DAE4CDFBE4CCFAE4C8F922D2
:10115200FAE6FB0808E6F925F0F618E6CA3AF6229E
:10116200D083D082F8E4937012740193700DA3A31C
:1011720093F8740193F5828883E473740293686030
:06118200EFA3A3A380DF30
:00000001FF
