:100046000D0A206465627567BCECB2E2C4DAC8DDED
:10005600A3BA0D0A00200D0A41D7E9BCECB2E20DA5
:100066000A00205341313D25643B205341323D2552
:10007600643B205341333D25643B205341343D25A9
:10008600643B2053415F67726F75703D25643B206A
:1000960053415F636865636B3D25640D0A0020412B
:1000A600303D25643B2041313D25643B2041323DB6
:1000B60025643B20413231303D25640D0A00200D78
:1000C6000A42D7E9BCECB2E20D0A00205342313DA8
:1000D60025643B205342323D25643B205342333D49
:1000E60025643B205342343D25643B2053425F67E1
:1000F600726F75703D25643B2053425F636865638C
:100106006B3D25640D0A002042303D25643B2042AC
:10011600313D25643B2042323D25643B204232314D
:10012600303D25640D0A00200D0A43D7E9BCECB228
:10013600E20D0A00205343313D25643B20534332F0
:100146003D25643B205343333D25643B20534334D4
:100156003D25643B2053435F67726F75703D256490
:100166003B2053435F636865636B3D25640D0A005E
:100176002043303D25643B2043313D25643B2043ED
:10018600323D25643B20433231303D25640D0A0063
:10019600200D0A44D7E9C5D0B6CF0D0A0020534436
:1001A600313D25643B205344323D25643B20534476
:1001B600333D25643B205344343D25643B20534462
:1001C6005F67726F75703D25643B2053445F6368BB
:1001D60065636B3D25640D0A002044303D25643B74
:1001E6002044313D25643B2044323D25643B204478
:1001F6003231303D25640D0A00200D0A45D7E9BC91
:10020600ECB2E20D0A00205345313D25643B2053F4
:1002160045323D25643B205345333D25643B205301
:10022600455F67726F75703D25643B2053455F637C
:100236006865636B3D25640D0A002045303D2564E5
:100246003B2045313D25643B2045323D25643B201E
:10025600453231303D25640D0A000D0A004C6F61B0
:1002660064696E672E2E2E0D0A003D00205F202049
:1002760020205F2020202020202020202020202039
:100286005F5F5F205F20202020202020202020206C
:100296005F202020200D0A007C207C2020285F295A
:1002A6005F205F20205F5F5F2020202F205F5F7C24
:1002B600207C5F20205F5F5F205F5F7C207C5F5F2C
:1002C600200D0A007C207C5F5F7C207C2027205C40
:1002D6002F202D5F29207C20285F5F7C2027205C33
:1002E6002F202D5F29205F7C202F202F200D0A0034
:1002F6007C5F5F5F5F7C5F7C5F7C7C5F5C5F5F5F7A
:100306007C20205C5F5F5F7C5F7C7C5F5C5F5F5F07
:100316005C5F5F7C5F5C5F5C200D0A0056657273F4
:10032600696F6E3A09090956312E302E310920209F
:1003360020200D0A00417574686F723A090909098F
:1003460047737820202009202020200D0A00D0BEE7
:10035600C6ACD0C5CFA23A2020202020535443312A
:100366003546324B363053320D0A00CFB5CDB3D6B3
:10037600F7C6B53A2020202020256C640D0A00B26D
:10038600A8CCD8C2CA3A2020202009202025640DF6
:100396000A00CAE4C8EB30783034B2E9BFB4D6B844
:1003A600C1EEB0EFD6FA2020202020200D0A00B59D
:1003B600B1C7B0C4A3CABDA3BA424F4F540D0A0079
:1003C6000D0A4572726F722831293A205341312045
:1003D6007E20534134CFDFB3F6B4ED0D0A000D0A8B
:1003E6004572726F722832293A20534231207E209C
:1003F600534234CFDFB3F6B4ED2CD2D1CDA3D6B968
:10040600BCECB2E20D0A000D0A4572726F72283317
:10041600293A20534331207E20534334CFDFB3F6AD
:10042600B4ED2CD2D1CDA3D6B9BCECB2E20D0A0004
:100436000D0A4572726F722834293A2053443120CE
:100446007E20534434CFDFB3F6B4ED2CD2D1CDA306
:10045600D6B9BCECB2E20D0A000D0A4572726F7293
:100466002835293A20534531207E20534533CFDFA6
:10047600B3F6B4ED2CD2D1CDA3D6B9BCECB2E20D15
:100486000A000D0AC3BBD3D0CFDFB1BBC0ADB5CD1B
:10049600A1A30D0A00303030300D0A000D0A256484
:1004A600CFDFB1BBC0ADB5CDA1A30D0A0025640D4C
:1004B6000A003131313125640D0A002A3D3D3D3DAA
:1004C6003D3D3D3D3D3D3D3D20434D44204C495342
:1004D60054203D3D3D3D3D3D3D3D3D3D3D3D2A0D8F
:1004E6000A0020307830302D2D2D2D2D2D2D2D2D3F
:1004F6002D424F4F54CDA3D6B9D6B8C1EE202020F9
:100506002020202020200D0A0020307830312D2D8B
:100516002D2D2D2D2D2D2D2D53544550B5A5B2BD68
:10052600B2E2CAD4D6B8C1EE202020200D0A00209F
:10053600307830322D2D2D2D2D2D2D2D2D2D524F48
:100546004C4CB9F6B6AFB2E2CAD4D6B8C1EE20204A
:100556002020200D0A0020307830332D2D2D2D2D12
:100566002D2D2D2D2D4445425547BFAAB9D864657A
:10057600627567D6B8C1EE2020200D0A00203078BB
:1005860030342D2D2D2D2D2D2D2D2D2D48454C5016
:10059600D6B8C1EEC1D0B1ED2020202020202020E9
:1005A600200D0A0020307830352D2D2D2D2D2D2DA6
:1005B6002D2D2D5245424F4F54D6D8C6F42020201B
:1005C600202020202020090D0A0020307830362DEA
:1005D6002D2D2D2D2D2D2D2D2D4155544FD7D4B6E6
:1005E600AFBCECB2E22020202020202020090D0AFA
:1005F6000020B5B1C7B0C4A3CABDA3BA424F4F5479
:030606000D0A00DA
:10000300015600016C00C109C10A0251FFFF0254ED
:08001300FFFF015302015F022F
:0F1A6E00EF4E600A000000EF1F70F51E80F2229D
:10002600EF4E60120000007D0B7CBEDCFEDDFCEFB7
:060036001F70ED1E80EAC0
:01003C0022A1
:10185E008E228F23E5A2543FF5A2759850438E40F9
:10186E00AE22AF23AB07AA06E4F9F8FF7E307D2A3D
:10187E00FC12190CEFF404F58BAE22AF23AB07AAC2
:10188E0006E4F9F8FF7E307D2AFC12190CC3E49FA2
:10189E00FFE49EFE74019DFDE49CFC78081213B7D4
:0918AE008F8DD28ED2ACD2AF2294
:1018B7008E228F2353BAFE759A50AE22AF23AB0701
:1018C700AA06E4F9F8FF7E307D2AFC12190CEFF422
:1018D70004F5D7AE22AF23AB07AA06E4F9F8FF7EDB
:1018E700307D2AFC12190CC3E49FFFE49EFE7401AD
:1018F7009DFDE49CFC78081213B78FD6438E1443E2
:05190700AF01D2AF2288
:091A7D002009FDEFD209F59922C0
:1019E6008B088A09890AAB08AA09A90A12139E60FC
:1019F60013050AE50A7002050914F912139EFF126F
:051A06001A7D80E222C0
:091A8600200AFDEFD20AF59B22B3
:101A0B008B378A388939AB37AA38A93912139E60BC
:101A1B00130539E5397002053814F912139EFF12BC
:051A2B001A8680E22292
:05001C00AE07021A7D91
:061950008B228A2389248A
:101956007534007535007536258B378A3889398593
:10196600343A85353B85363C7B017A00790012197D
:10197600B87B017A007900121A0B753400753500B0
:03198600753600B3
:01198900223B
:03002300021A5B63
:101A5B00309808C29885535F859953309904C29981
:031A6B00C209327B
:03004300021A306E
:101A3000C0E0E59A30E003539AFEE59A30E10553A1
:071A40009AFDC20AD0E0325A
:100B760085515485525520B50C20B60920B706205C
:100B8600C103020C6EE4F55DF55EF55BF55CF559A7
:100B9600F55AF557F558F56AF56BF568F569F56692
:100BA600F567F564F565F562F563F560F561F55190
:100BB600F552A2B533756000F561A2B6E4337562ED
:100BC60000F563A2B7E433756400F565A2C1E433AA
:100BD600756600F567E4FDEDFF3395E0FEC3EF941F
:100BE60004EE648094805021ED25E02460F8E6FA56
:100BF60008E64A70110569E56970020568EF240187
:100C0600F56BE43EF56A0D80CEE56B65697004E52B
:100C16006A656860037F0122A2CCE433755700F54C
:100C260058A297E433755900F55AA2B4E433755BBC
:100C360000F55CE55A25E0FFE559334557FAE558D6
:100C46004FFBAE5BE55C7802C333CE33CED8F9FFFB
:100C5600EE4AF55DEF4BF55EAE68E5697803C333A2
:100C6600CE33CED8F902102B20C20C20C30920C4E3
:100C76000620A003020D61E4F55DF55EF55BF55C0B
:100C8600F559F55AF557F558F56AF56BF568F569AE
:100C9600F566F567F564F565F562F563F560F5618A
:100CA600F551755220A2C233756000F561A2C3E406
:100CB60033756200F563A2C4E433756400F565A27A
:100CC600A0E433756600F567E4FDEDFF3395E0FEBD
:100CD600C3EF9404EE648094805021ED25E02460F7
:100CE600F8E6FA08E64A70110569E56970020568D2
:100CF600EF2401F56BE43EF56A0D80CEE56B656980
:100D06007004E56A656860037F0222A2B2E4337567
:100D16005700F558A2C0E433755900F55AA2B3E45A
:100D260033755B00F55CE55A25E0FFE55933455719
:100D3600FAE5584FFBAE5BE55C7802C333CE33CEA3
:100D4600D8F9FFEE4AF55DEF4BF55EAE68E56978DA
:100D560003C333CE33CED8F902102B20A40C20A522
:100D66000920A60620A703020E54E4F55DF55EF5FC
:100D76005BF55CF559F55AF557F558F56AF56BF5D7
:100D860068F569F566F567F564F565F562F563F589
:100D960060F561F551755240A2A433756000F561A6
:100DA600A2A5E433756200F563A2A6E43375640078
:100DB600F565A2A7E433756600F567E4FDEDFF333C
:100DC60095E0FEC3EF9404EE648094805021ED25F7
:100DD600E02460F8E6FA08E64A70110569E56970EC
:100DE600020568EF2401F56BE43EF56A0D80CEE559
:100DF6006B65697004E56A656860037F0322A2A2D9
:100E0600E433755700F558A2A1E433755900F55A35
:100E1600A2A3E433755B00F55CE55A25E0FFE559CE
:100E2600334557FAE5584FFBAE5BE55C7802C333B2
:100E3600CE33CED8F9FFEE4AF55DEF4BF55EAE68E0
:100E4600E5697803C333CE33CED8F902102B20C51B
:100E56000C20C609208006208103020F47E4F55DB9
:100E6600F55EF55BF55CF559F55AF557F558F56AF3
:100E7600F56BF568F569F566F567F564F565F56290
:100E8600F563F560F561F551755260A2C53375607D
:100E960000F561A2C6E433756200F563A280E4330F
:100EA600756400F565A281E433756600F567E4FDB7
:100EB600EDFF3395E0FEC3EF9404EE64809480501A
:100EC60021ED25E02460F8E6FA08E64A7011056986
:100ED600E56970020568EF2401F56BE43EF56A0DDD
:100EE60080CEE56B65697004E56A656860037F041A
:100EF60022A286E433755700F558A285E433755966
:100F060000F55AA287E433755B00F55CE55A25E0E7
:100F1600FFE559334557FAE5584FFBAE5BE55C787C
:100F260002C333CE33CED8F9FFEE4AF55DEF4BF56B
:100F36005EAE68E5697803C333CE33CED8F90210C6
:100F46002B20820920830620840302103FE4F55DEE
:100F5600F55EF55BF55CF559F55AF557F558F56A02
:100F6600F56BF568F569F566F567F564F565F5629F
:100F7600F563F560F561F551755280A282337560AF
:100F860000F561A283E433756200F563A284E4335D
:100F9600756400F565E4FDEDFF3395E0FEC3EF945F
:100FA60003EE648094805021ED25E02460F8E6FA93
:100FB60008E64A70110569E56970020568EF2401C3
:100FC600F56BE43EF56A0D80CEE56B65697004E568
:100FD6006A656860037F0522A292E433755700F5BF
:100FE60058A2C7E433755900F55AA293E433755BEA
:100FF60000F55CE55A25E0FFE559334557FAE55813
:101006004FFBAE5BE55C7802C333CE33CED8F9FF37
:10101600EE4AF55DEF4BF55EAE68E5697803C333DE
:10102600CE33CED8F9255EFFE55D3EFEEF2552F5BF
:0B10360052EE3551F5517F00227F0083
:01104100228C
:100609007BFF7A0079461210A4E4F55DF55EF55B8F
:10061900F55CF559F55AF557F558F56AF56BF5682E
:10062900F569F566F567F564F565F562F563F560F5
:10063900F5617BFF7A00795B1210A4A2B5E43375EA
:100649006000F561A2B6E433756200F563A2B7E410
:1006590033756400F565A2C1E433756600F567E496
:10066900FFEFFD3395E0FCC3ED9404EC64809480C6
:100679005021EF25E02460F8E6FA08E64A701105F2
:1006890069E56970020568ED2401F56BE43CF56ADA
:100699000F80CE7BFF7A007968856040856141854E
:1006A90062428563438564448565458566468567F9
:1006B90047856848856949856A4A856B4B1210A444
:1006C900A2CCE433755700F558A297E43375590065
:1006D900F55AA2B4E433755B00F55CE55A25E0FFF1
:1006E900E559334557FCE5584FFDAE5BE55C7802AB
:1006F900C333CE33CED8F9FFEE4CF55DEF4DF55E41
:100709007BFF7A0079A485574085584185594285F0
:100719005A43855B44855C45855D46F5471210A4BF
:10072900E4F55DF55EF55BF55CF559F55AF557F5B8
:1007390058F56AF56BF568F569F566F567F564F5D9
:1007490065F562F563F560F5617BFF7A0079C4129E
:1007590010A4A2C2E433756000F561A2C3E4337545
:100769006200F563A2C4E433756400F565A2A0E4F0
:1007790033756600F567E4FFEFFD3395E0FCC3EDE3
:100789009404EC648094805021EF25E02460F8E61D
:10079900FA08E64A70110569E56970020568ED24F1
:1007A90001F56BE43CF56A0F80CE7BFF7A0079D1C5
:1007B90085604085614185624285634385644485DE
:1007C9006545856646856747856848856949856AB7
:1007D9004A856B4B1210A4A2B2E433755700F55841
:1007E900A2C0E433755900F55AA2B3E433755B002E
:1007F900F55CE55A25E0FFE559334557FCE5584FC7
:10080900FDAE5BE55C7802C333CE33CED8F9FFEE9B
:100819004CF55DEF4DF55E7BFF7A01790D8557400B
:10082900855841855942855A43855B44855C458590
:100839005D46F5471210A4E4F55DF55EF55BF55CE0
:10084900F559F55AF557F558F56AF56BF568F569EF
:10085900F566F567F564F565F562F563F560F561CB
:100869007BFF7A01792D1210A4A2A4E433756000EC
:10087900F561A2A5E433756200F563A2A6E43375B8
:100889006400F565A2A7E433756600F567E4FFEF38
:10089900FD3395E0FCC3ED9404EC64809480502111
:1008A900EF25E02460F8E6FA08E64A70110569E5E3
:1008B9006970020568ED2401F56BE43CF56A0F8067
:1008C900CE7BFF7A01793A85604085614185624234
:1008D900856343856444856545856646856747859F
:1008E9006848856949856A4A856B4B1210A4A2A29A
:1008F900E433755700F558A2A1E433755900F55A48
:10090900A2A3E433755B00F55CE55A25E0FFE559E0
:10091900334557FCE5584FFDAE5BE55C7802C333C0
:10092900CE33CED8F9FFEE4CF55DEF4DF55E7BFF8A
:100939007A017976855740855841855942855A43C8
:10094900855B44855C45855D46F5471210A4E4F551
:100959005DF55EF55BF55CF559F55AF557F558F512
:100969006AF56BF568F569F566F567F564F565F59A
:1009790062F563F560F5617BFF7A0179961210A43F
:10098900A2C5E433756000F561A2C6E4337562005F
:10099900F563A280E433756400F565A281E43375DB
:1009A9006600F567E4FFEFFD3395E0FCC3ED9404C1
:1009B900EC648094805021EF25E02460F8E6FA0881
:1009C900E64A70110569E56970020568ED2401F5CB
:1009D9006BE43CF56A0F80CE7BFF7A0179A38560D1
:1009E90040856141856242856343856444856545E7
:1009F900856646856747856848856949856A4A8560
:100A09006B4B1210A4A286E433755700F558A285E2
:100A1900E433755900F55AA287E433755B00F55C38
:100A2900E55A25E0FFE559334557FCE5584FFDAE3A
:100A39005BE55C7802C333CE33CED8F9FFEE4CF5D3
:100A49005DEF4DF55E7BFF7A0179DF85574085586B
:100A590041855942855A43855B44855C45855D4698
:100A6900F5471210A4E4F55DF55EF55BF55CF55903
:100A7900F55AF557F558F56AF56BF568F569F566B0
:100A8900F567F564F565F562F563F560F5617BFF7A
:100A99007A0179FF1210A4A282E433756000F5612E
:100AA900A283E433756200F563A284E433756400BC
:100AB900F565E4FFEFFD3395E0FCC3ED9403EC64C9
:100AC9008094805021EF25E02460F8E6FA08E64A90
:100AD90070110569E56970020568ED2401F56BE49B
:100AE9003CF56A0F80CE7BFF7A02790C85604085E0
:100AF90061418562428563438564448565458568AE
:100B090046856947856A48856B491210A4A292E413
:100B190033755700F558A2C7E433755900F55AA241
:100B290093E433755B00F55CE55A25E0FFE559333D
:100B39004557FCE5584FFDAE5BE55C7802C333CE03
:100B490033CED8F9FFEE4CF55DEF4DF55E7BFF7ABC
:100B5900027940855740855841855942855A4385D0
:0D0B69005B44855C45855D46F5470210A4A0
:1015FE007BFF7A0279601210A47BFF7A0279631264
:10160E0010A4E4F522AF22EF3395E0FEC3EF94323F
:10161E00EE6480948050147BFF7A0279701210A4CD
:10162E007F327E00121A6E052280DA7BFF7A0279F3
:10163E00601210A47BFF7A0279721210A47BFF7ADB
:10164E0002799E1210A47BFF7A0279CA1210A47B33
:10165E00FF7A0279F61210A47BFF7A0279601210DB
:10166E00A47BFF7A0379221210A47BFF7A03793BC5
:10167E001210A47BFF7A0379541210A47BFF7A0315
:10168E0079717543007542C07541A87540001210FE
:10169E00A47BFF7A0379857540257541801210A4CD
:1016AE007BFF7A0379981210A47BFF7A0379B50237
:0216BE0010A476
:1016C000E55624FE602114602F14603D14606F24E1
:1016D00004600302176E7BFF7A0379C61210A47BA5
:1016E000FF7A00796880317BFF7A0379E41210A4D5
:1016F0007BFF7A0079D180207BFF7A04790D12106C
:10170000A47BFF7A01793A800F7BFF7A0479361245
:1017100010A47BFF7A0179A38560408561418562D1
:10172000428563438564448565458566468567478C
:10173000856848856949856A4A856B4B802D7BFFA2
:101740007A04795F1210A47BFF7A02790C856040DD
:10175000856141856242856343856444856545852D
:0F1760006846856947856A48856B491210A4223F
:10198A007594FF7593FF75928C75918C7596FF759A
:10199A0095FF75B2FC75B1FC75B4FF75B3FF75CAD6
:0E19AA001075C910E4F5CCF5CBF5E2F5E1229D
:101A470012198A7F807E251218B77F807E2512188B
:041A57005E0215FE18
:1017FB00E556704AE552B4FF16E551B4FF117BFF75
:10180B007A0479881210A47BFF7A04799B80407B41
:10181B00FF7A0479A2E5522401F541E43551F540F4
:10182B001210A47BFF7A0479B3E5522401F526E468
:10183B003551F52512195074FFF551F55222121638
:10184B00C0E4F5567BFF7A0479B8F5258556261248
:03185B00195022FF
:10150E00121A47E55370030215F424FE601E146090
:10151E00261460291470030215A71470030215D83F
:10152E00240560030215F4E4F553800085566C1211
:10153E000B768F560215F11206090215D37BFF7A30
:10154E000279601210A47BFF7A0479C11210A47B79
:10155E00FF7A0479E81210A47BFF7A05790F121036
:10156E00A47BFF7A0579351210A47BFF7A05795C8E
:10157E001210A47BFF7A0579831210A47BFF7A05E3
:10158E0079AA1210A47BFF7A0579D01210A47BFFE2
:10159E007A0579F71210A4802CE4F55DF55EF55B03
:1015AE00F55CF559F55AF557F558F568F569F56690
:1015BE00F567F564F565F562F563F560F561F5516E
:1015CE00F5521215FEE4F553801C85566C120B76FF
:1015DE008F56E56CB5560CE55565527004E55465AD
:1015EE005160031217FB7F327E0012002602151186
:0300000002176F75
:0C176F00787FE4F6D8FD75816C0217B697
:10139E00BB010689828A83E0225002E722BBFE024D
:0913AE00E32289828A83E4932280
:10190C00C2D5E830E70FB2D5E4C39BFBE49AFAE406
:10191C0099F9E498F8EC30E717B2D5121942121481
:10192C0046E4C39BFBE49AFAE499F9E498F8800343
:10193C0012144630D50DE4C39FFFE49EFEE49DFDDA
:04194C00E49CFC22F9
:1013B700E86010ECA2E713FCED13FDEE13FEEF134C
:0413C700FFD8F02239
:10104200E54C2440F8E6054C22783D300702784012
:10105200E475F0011214D802139E2000EB7F2ED209
:10106200008018EF540F2490D43440D4FF30040B86
:10107200EF24BFB41A0050032461FFE54D6002154E
:101082004D0550E5507002054F30070D783DE4756F
:10109200F0011214D8EF0213F802001C7403D207F5
:1010A2008003E4C207F54C8B3D8A3E893FE4F54D4F
:1010B200F54FF550E54D60077F2012107D80F575E4
:1010C2004EFFC201C200C202C203C205C206C2086A
:1010D20012104BFF700D3007057F0012108EAF50BB
:1010E200AE4F22B4255FC2D5C20412104BFF24D0EA
:1010F200B40A00501A75F00A784D30D50508B6FFCB
:101102000106C6A426F620D5047002D20380D92493
:10111200CFB41A00EF5004C2E5D20402128ED201FB
:1011220080C6D20080C0D20280BCD2D580BAD2059D
:1011320080B47F2012107D2002077401B54D00405B
:10114200F1121042FF12107D0210B6D208D20680B0
:1011520095121042FB121042FA121042F94A4B70D9
:1011620006795F7A137BFF20022EE54D602A7E000E
:101172008E827583001213CB60060EEE654E70F000
:10118200C2D5EBC0E0EAC0E0E9C0E0EE1212D5D071
:10119200E0F9D0E0FAD0E0FB12139EFF60AAEBC0A8
:1011A200E0EAC0E0E9C0E012107DD0E02401F9D00D
:1011B200E03400FAD0E0FBE54E0460DCD54ED98085
:1011C200877BFF7A1279D1D202809C7910800279D2
:1011D20008C206C2088008D2D5790A8004790AC2F8
:1011E200D5E54E047002F54EE4FAFDFEFF12104200
:1011F200FC7B08200113121042FD7B1030000A1202
:101202001042FE121042FF7B20EC3382D592D55061
:1012120013C3E43000069FFFE49EFEE42001039D19
:10122200FDE49CFCE4CBF8C201EC700CCFCECDCC3B
:10123200E824F8F870F38017C3EF33FFEE33FEEDC6
:1012420033FDEC33FCEB33FB994002FB0FD8E9EBA7
:10125200300105F8D0E0C448B201C0E00AEC4D4EBE
:101262004F78207B0070C2EAB54E0040BCC0E0124D
:1012720012D7D0F0D0E0200104C4C0E0C4B201C053
:10128200F0121066D0F0D5F0EB0210B61214E8118D
:10129200535311CD5811244C11204211D14F11D961
:0F12A2004411D94911394311DF5511C34611C306
:1012B1004511C347137F5011282D112C2E114F2B8F
:1012C100113023114D2013682A10E84800001147FE
:1012D1003F3F3F00790AA2D5200314300509B91018
:1012E100020404B9080104A2D52006025001042019
:1012F10002689202B54D005034C0E07F20300319DE
:101301007F30A20272067205500F12132EC202C262
:1013110006C205C2087F30800F300503E9C0E01224
:10132100107D300503D0E0F9D0E0B54DCC30051784
:101331007F30B9100C12107D7F583004077F788000
:1013410003B9080312107D3002057F2D02107D7F45
:10135100202008F87F2B2006F322920280CF286EEE
:10136100756C6C2900D2011210423001F8C201786B
:101371004D30D50108F60210E82D5043495812109E
:10138100422403B405004001E490137A9312106ED5
:0D139100743A12106ED203754D040211CD96
:1019B800853740853841853942EBC53AFBEAC53B56
:1019C800FAE9C53CF97F09784312139EF60809E93C
:0E19D80070010ADFF4AB3AAA3BA93C02109E54
:10177B0002150EE493A3F8E493A34003F68001F261
:10178B0008DFF48029E493A3F85407240CC8C3336F
:10179B00C4540F4420C8834004F456800146F6DF3E
:1017AB00E4800B0102040810204080900003E47ECB
:1017BB00019360BCA3FF543F30E509541FFEE49333
:1017CB00A360010ECF54C025E060A840B8E493A3FA
:1017DB00FAE493A3F8E493A3C8C582C8CAC583CA25
:1017EB00F0A3C8C582C8CAC583CADFE9DEE780BEDD
:01001B0000E4
:1013CB00BB010CE58229F582E5833AF583E02250D7
:1013DB0006E92582F8E622BBFE06E92582F8E22221
:0D13EB00E58229F582E5833AF583E493223B
:1013F800BB010689828A83F0225002F722BBFE01D4
:02140800F322CD
:10140A0075F008758200EF2FFFEE33FECD33CDCC99
:10141A0033CCC58233C5829BED9AEC99E58298401C
:10142A000CF582EE9BFEED9AFDEC99FC0FD5F0D6F9
:10143A00E4CEFBE4CDFAE4CCF9A88222B800C1B923
:10144A000059BA002DEC8BF084CFCECDFCE5F0CB61
:10145A00F97818EF2FFFEE33FEED33FDEC33FCEB9A
:10146A0033FB10D703994004EB99FB0FD8E5E4F955
:10147A00FA227818EF2FFFEE33FEED33FDEC33FC42
:10148A00C933C910D7059BE99A4007EC9BFCE99A36
:10149A00F90FD8E0E4C9FAE4CCFB2275F010EF2F7B
:1014AA00FFEE33FEED33FDCC33CCC833C810D7077B
:1014BA009BEC9AE899400AED9BFDEC9AFCE899F8B6
:0E14CA000FD5F0DAE4CDFBE4CCFAE4C8F92249
:1014D800FAE6FB0808E6F925F0F618E6CA3AF62215
:1014E800D083D082F8E4937012740193700DA3A393
:1014F80093F8740193F5828883E4737402936860A7
:06150800EFA3A3A380DFA6
:00000001FF
