:030000000207BA3A
:0C07BA00787FE4F6D8FD7581220208016A
:100C1600C0F9A4B0999282F88090407924301912D4
:040C26000278001040
:100A6B00021C0000020A000002080000020C000039
:100A7B00020F00000211000002130000021500001B
:100A8B00011B01011701011801C181C100021900ED
:070A9B0000010E00011E0026
:100A3200EF603224FB601314601914601F240370EA
:100A420027E5A0541F4480F5A022E5A0541F44A02E
:100A5200F5A022E5A0541F44C0F5A022E5A0541F32
:090A620044E0F5A02253A01F227C
:100BBD007F05120A32E4F5801F120A327580FFE4B8
:070BCD00FF120A32020BA324
:100B08007C007D0A1202DB7C007D0A1202DB74166F
:100B18002DF582740C3CF5837F06E493FD120B5D82
:040B28007F647E0068
:0B0B2C00EF1FAC0670011E4C70F6229B
:100B5D00AE077F06120A32E4F580120A32AF06A8FC
:100B6D00077401088002C333D8FCF5807F07120A91
:040B7D00328D802213
:100C2A00AE077F06120A327580FF0F120A328E80D3
:010C3A002297
:100BA300758CFF758AFF758D3C758BB0758906D280
:0A0BB300A9D2ABD2AFD28CD28E22B1
:03000B0002000EE2
:0D000E00C0E0051DE51D7002051CD0E032AC
:03001B000208C414
:1008C400C0E0C0F0C0D075D000C000C004C005C0F6
:1008D40006C007758D3C758BB0050BE50B700205E2
:1008E4000A6414450A7021851C08851D09AC08ADED
:1008F400097E277F101202DB8E0C8F0D751C00758C
:100904001D00750A00750B00300016051AE51A70F3
:10091400020519641445197008F519751A14751827
:1009240002D007D006D005D004D000D0D0D0F0D06B
:02093400E032AF
:10093600120C4C7F90120AA3120C3B7F03120AA3DF
:10094600120C3B120C67120BD4120C4C7F91120A3C
:10095600A3120C3B120B377511008F12D202120B29
:10096600EB120C67AC11AD12E41202217B487AE15E
:1009760079FA783F1201167BCD7ACC794C783E1203
:0C098600002512025A8E158F16020BD4A9
:10099200120C4C7F90120AA3120C3B7F01120AA385
:1009A200120C3B120C67120BD4120C4C7F91120AE0
:1009B200A3120C3B120B37750F008F10D202120BD1
:1009C200EB120C67AC0FAD10E41202217B487AE106
:1009D20079FA783F1201167BCD7ACC794C783E12A7
:0C09E200002512025A8E138F14020BD451
:100B81008F218D22120C4C7FA0120AA3120C3BAFB5
:100B910021120AA3120C3BAF22120AA3120C3B0230
:020BA1000C67DF
:020AD8008F216C
:100ADA00120C4C7FA0120AA3120C3BAF21120AA3DC
:100AEA00120C3B120C4C7FA1120AA3120C3B120BE4
:0D0AFA00378F22D202120BEB120C67AF22D5
:010B070022CB
:100557007D8EE4FF120B25AE08AF09E4FCFD7B3F5F
:100567007A42790FF8C312033E501BAE08AF09E475
:10057700FCFD0BF81209EE74162FF582740C3EF58C
:10058700837F01120B22AE08AF09E4FCFD7B9F7A43
:10059700867901F8C312033E5027AE08AF09E4FC81
:1005A700FD0BF81209EEE47B0AFAF9F81209EE746A
:1005B700162BF582740C3AF583E493FD7F02120B38
:1005C70025D3E509940FE50894274024AE08AF0921
:1005D7007C277D101202DB7C007D0A1202DB741679
:1005E7002DF582740C3CF583E493FD7F03120B25F4
:1005F700D3E50994E7E50894034024AE08AF097CE6
:10060700037DE81202DB7C007D0A1202DB74162DE3
:10061700F582740C3CF583E493FD7F04120B25D31C
:10062700E5099463E50894004024AE08AF097C000F
:100637007D641202DB7C007D0A1202DB74162DF545
:1006470082740C3CF583E493FD7F05120B25D3E5FB
:10065700099409E50894004007AE08AF09120B0892
:10066700AE08AF097C007D0A1202DB74162DF582F5
:10067700740C3CF583E493FD7F07120B257FFF0283
:020687000C2A3B
:100422007DC8E4FF120B25AE0CAF0DE4FCFD7B3F53
:100432007A42790FF8C312033E501EAE0CAF0DE4A0
:10044200FCFD0BF81209EE74162FF582740C3EF5C2
:1004520083E493FD7F01120B25AE0CAF0DE4FCFD8E
:100462007B9F7A867901F8C312033E5027AE0CAF08
:100472000DE4FCFD0BF81209EEE47B0AFAF9F8121E
:1004820009EE74162BF582740C3AF583E493FD7F22
:1004920002120B25D3E50D940FE50C94274024AEF0
:1004A2000CAF0D7C277D101202DB7C007D0A12024C
:1004B200DB74162DF582740C3CF583E493FD7F0307
:1004C200120B25D3E50D94E7E50C94034024AE0C02
:1004D200AF0D7C037DE81202DB7C007D0A1202DB99
:1004E20074162DF582740C3CF583E493FD7F04129F
:1004F2000B25D3E50D9463E50C94004024AE0CAFBC
:100502000D7C007D641202DB7C007D0A1202DB742A
:10051200162DF582740C3CF583E493FD7F05120BD6
:1005220025D3E50D9409E50C94004007AE0CAF0D00
:10053200120B08AE0CAF0D7C007D0A1202DB7416A2
:100542002DF582740C3CF583E493FD7F07120B2595
:050552007FFF020C2AEE
:100723007DC1E4FF120B257DBF7F01120B25E51B65
:10073300900C1693FD7F02120B25E51BFB7A0064D8
:10074300017029AE13AF14FC7D641202DB74202FF9
:10075300F582740C3EF583E493FD7F05120B25AE01
:1007630013AF14120B08AE13AF14802DEB64034ABE
:100773007040AE15AF16FC7D641202DB74202FF5BA
:1007830082740C3EF583E493FD7F05120B25AE15B1
:10079300AF16120B08AE15AF167C007D0A1202DBF2
:1007A30074162DF582740C3CF583E493FD7F0712D8
:0707B3000B257FFF020C2A59
:100BD400E51724FE600A14600A240270090205570E
:070BE4000204221207232284
:03068900120BD47D
:10068C007F01120AD88F0E7F02120AD88F1E3001FA
:10069C0078C3E50E9516E495157F045007120A32BF
:1006AC00C2808005120A32D280E4FF120A32C3E5FE
:1006BC001E9509E495087F045007120A32C2818006
:1006CC0005120A32D281E4FF120A32E51764017076
:1006DC000E7F04120A32C282E4FF120A328002D266
:1006EC0082E5176402700E7F04120A32C283E4FFA3
:1006FC00120A328002D283E517640370097F041258
:10070C000A32C284800BD284227F04120A32758092
:07071C00FFE4FF120A322284
:1008460020B31920B30512068980F80517D3E517DA
:1008560094037480948040657517012220B21B2092
:10086600B20512068980F8051B051BD3E51B940308
:10087600748094804047751B012220B11120B10875
:10088600120BD412068C80F5AD167F01802120B0A4
:100896002C20B00A120BD412068CD20080F3C200B0
:1008A600E4F519F51AE51864017007AD097F02022F
:0E08B6000B81E51864027005B201751801226D
:100C0200120BBD12093612099212068C120BD41263
:040C1200084680EF21
:040C5B00D2A07F059F
:080C5F0000AE071FEE70F92240
:0F0C4C00D2A1120C5BC2A17F05120C5FC2A022C5
:0C0C6700C2A1120C5BD2A17F05020C5F41
:100BEB00C2A0A20292A17F05120C5F120C5BC2A0E5
:070BFB00D2A17F05020C5F8F
:100C3B00120C5BA2A19202C2A07F05120C5FA20252
:010C4B002286
:020AA300AD079D
:100AA500E4FCECC39408748094805024C2A07F05B4
:100AB500120C5FED30E704D2A18002C2A17F0512BE
:100AC5000C5FD2A0ED25E0FD7F05120C5F0C80D2F6
:020AD500C2A0BD
:010AD70022FC
:100B3700E4FCECC39408748094805017120C5BEDAE
:100B470025E0FD30A103430501C2A07F05120C5F1C
:050B57000C80DFAF057A
:010B5C002276
:10001E000202C6E86480F8E933E83360110460F048
:10002E00ED33EC337009E8FCE9FDEAFEEBFF220448
:10003E0060DED3EB9FEA9EE99DE8C2E78CF0C2F743
:10004E0095F0400CE8CCF8E9CDF9EACEFAEBCFFB0F
:10005E0012029185D0F05804700320D5B3E80470D5
:10006E00075002B2D50202D092D5EC0460F7E4CC70
:10007E00C0E0C398F8603B94186008400DD0E0FBD8
:10008E000202A8E4FBFAC9FC8028E830E406E4C9C1
:10009E00FBE4CAFCE830E305E4C9CACBFCE854072C
:1000AE006010F8C3E913F9EA13FAEB13FBEC13FC37
:1000BE00D8F130F52FC3E49CFCEF9BFFEE9AFEEDDA
:1000CE0099FDD0E0FBEF4E4D4C701222DB03020285
:1000DE00CDEC2CFCEF33FFEE33FEED33FDED30E7D0
:1000EE00EB0202A8EF2BFFEE3AFEED39FDD0E0FB5E
:1000FE0050130BBB00030202D0ED13FDEE13FEEF07
:08010E0013FFEC13FC0202A830
:10011600EC4D6011E8497017ED33EC3304600DE4E3
:10012600FCFFFEFD22E933E8330470F80202C61232
:10013600029158046009E4CC248150062850090233
:1001460002D02840030202CDC0E0EB4A7044B980D9
:1001560006D0E0FB0202BCEF4E701CBD8008EBFF30
:10016600EAFEE9FD80EBE98DF0A4FEE5F00201FF71
:10017600E9CDF9EAFEEBFFEF89F0A4FCE5F0CE89C4
:10018600F0A42EFFE435F0CD89F0A42DFEE435F081
:100196008067EF4E7005BD80D780C3EF8BF0A4ACAF
:1001A600F0EE8BF0A42CFCE435F0F8EF8AF0A42CEA
:1001B600E5F038FCE433CB8DF0A42CFCE5F03BF8FD
:1001C600EE8AF0A42CFCE5F038F8E433CF89F0A4ED
:1001D6002CFCE5F038CF3400CE89F0A42FFFE5F0F3
:1001E6003EFEE433C98DF0A42EFEE5F039CD8AF04B
:1001F600A42FFFE5F03EFEE43DFD33D0E0FB5007C3
:100206000BBB000F0202D0EC2CFCEF33FFEE33FEEB
:06021600ED33FD0202A819
:10021C0075F020800E75F010800575F0087D007E5D
:10022C00007F003392D530D503120330EC334010ED
:10023C00EF33FFEE33FEED33FDEC33FCD5F0ED2266
:0E024C00E5F0247EA2D513CC92E7CDCEFF22A2
:10025A00EDD2E7CD33EC3392D524814006E4FFFE9C
:10026A00FDFC22FCE4CFCECDCC24E0501174FF80FB
:10027A00EDC3CC13CCCD13CDCE13CECF13CF047098
:07028A00F030D5DE02033065
:10029100E9D2E7C933E833F892D5EDD2E7CD33ECB3
:0702A10033FC5002B2D5222C
:1002A800EC30E7100FBF000C0EBE00080DBD0004B7
:1002B8000BEB6014A2D5EB13FCED92E7FD2274FF63
:1002C800FCFDFEFF22E480F8A2D574FF13FC7D80BC
:0302D800E480EFD0
:1007C600020C02E493A3F8E493A34003F68001F23B
:1007D60008DFF48029E493A3F85407240CC8C33334
:1007E600C4540F4420C8834004F456800146F6DF03
:1007F600E4800B0102040810204080900A6BE47E1E
:10080600019360BCA3FF543F30E509541FFEE493F7
:10081600A360010ECF54C025E060A840B8E493A3BE
:10082600FAE493A3F8E493A3C8C582C8CAC583CAE9
:10083600F0A3C8C582C8CAC583CADFE9DEE780BEA1
:010AA2000053
:1002DB00BC000BBE0029EF8DF084FFADF022E4CC07
:1002EB00F875F008EF2FFFEE33FEEC33FCEE9DECD0
:1002FB00984005FCEE9DFE0FD5F0E9E4CEFD22ED16
:10030B00F8F5F0EE8420D21CFEADF075F008EF2F5F
:10031B00FFED33FD4007985006D5F0F222C398FD50
:05032B000FD5F0EA22ED
:1009EE00C2D5E830E70FB2D5E4C39BFBE49AFAE434
:1009FE0099F9E498F8EC30E717B2D5120A241203ED
:100A0E0090E4C39BFBE49AFAE499F9E498F8800326
:100A1E0012039030D50DE4C39FFFE49EFEE49DFDCE
:040A2E00E49CFC2226
:0E033000C3E49FFFE49EFEE49DFDE49CFC22DE
:10033E00EB9FF5F0EA9E42F0E99D42F0EC6480C836
:06034E0064809845F022D6
:1003540075F008758200EF2FFFEE33FECD33CDCC60
:1003640033CCC58233C5829BED9AEC99E5829840E3
:100374000CF582EE9BFEED9AFDEC99FC0FD5F0D6C0
:10038400E4CEFBE4CDFAE4CCF9A88222B800C1B9EA
:100394000059BA002DEC8BF084CFCECDFCE5F0CB28
:1003A400F97818EF2FFFEE33FEED33FDEC33FCEB61
:1003B40033FB10D703994004EB99FB0FD8E5E4F91C
:1003C400FA227818EF2FFFEE33FEED33FDEC33FC09
:1003D400C933C910D7059BE99A4007EC9BFCE99AFD
:1003E400F90FD8E0E4C9FAE4CCFB2275F010EF2F42
:1003F400FFEE33FEED33FDCC33CCC833C810D70742
:100404009BEC9AE899400AED9BFDEC9AFCE899F87C
:0E0414000FD5F0DAE4CDFBE4CCFAE4C8F9220F
:00000001FF
